S0180000476363426F61726450726F6A656374312E737265630F
S1130000F0230020D1110000CD110000CD1100001B
S113001000000000000000000000000000000000DC
S1130020000000000000000000000000CD110000EE
S11300300000000000000000CD110000CD11000000
S1130040CD110000CD110000CD110000CD11000034
S1130050CD110000CD110000CD110000CD11000024
S1130060CD110000CD110000CD110000CD11000014
S1130070DD120000CD11000025130000CD11000099
S1130080CD110000CD110000CD110000CD110000F4
S1130090CD110000CD110000CD1100006908000051
S11300A0CD110000CD110000CD110000CD110000D4
S11300B00000000010B5064C2378002B07D1054B37
S11300C0002B02D0044800E000BF0123237010BDC0
S11300D00C02002000000000C0260000084B10B5F0
S11300E0002B03D00749084800E000BF0748036815
S11300F0002B00D110BD064B002BFBD09847F9E72D
S11301000000000010020020C0260000C0260000ED
S113011000000000F8B5DE4657464E464546E0B5B9
S11301204B4B802252011A608022D2011A60494C42
S113013023680225AB43236023681C229246934321
S1130140183A9146134323602368434A9046134068
S113015023602368414A1A4080235B0313432360CE
S113016023683F4F3B4023606368072293436360E7
S113017023688022D205134323602368394A13403D
S1130180236063684022934693436360364B1A6846
S11301900001101A010C00040023344EB04780B251
S11301A0A0816368802189020B43636063688022B5
S11301B0520213436360A37D0426B4466646334368
S11301C0A37523682B432360294B1C68AC431C6034
S11301D01C685646B4434E4634431C601C6846466D
S11301E034401C601C68A046C024A4034646344323
S11301F01C601C68274017431F605C680726B443D3
S11302005C601C688026F60534431C601C68154E2F
S113021034401C605C685E46B4435C6098815868F6
S11302200143596059680A435A609A7D61460A43FA
S11302309A75997D802252420A439A751A68154329
S11302401D603CBC90469946A246AB46F8BDC046EC
S113025000E100E000140042FFFFFFEFFFFFCFFFCB
S1130260FFFFFCFFFFFFFFF000000020A5190000C6
S1130270001C004210B5002914D004000139C9B291
S113028001314018084B1A7ED207FCD51A8D21780B
S1130290520A52020A431A851A7E9207FCD5013487
S11302A08442F0D110BDC0460014004210B50029AC
S11302B014D004000139C9B201314018084B1A7E28
S11302C0D207FCD51A8D2178520A52020A431A85A4
S11302D01A7E9207FCD501348442F0D110BDC04689
S11302E0001C004270B50020084B98470500084CDC
S11302F0FA218900A047074B186007492800A04746
S1130300064B18600522064B1A6070BD050F0000ED
S11303108D1800000400002040420F000800002057
S113032010E000E030B5084B1C68084A0025802125
S11303304902013807D3002CFBD054609560136840
S11303400B42FCD0F5E730BD0400002010E000E0D3
S11303500C4B1B68002B06D1EFF31083002B07D046
S11303600022094B1A70074A13680133136070475F
S113037072B6BFF35F8F0022044B1A700132024B36
S11303801A70F0E7280200202C0200200C00002044
S1130390084B1A68013A1A601B68002B09D1064BF6
S11303A01B78002B05D00122044B1A70BFF35F8F1A
S11303B062B67047280200202C0200200C000020A6
S11303C0F0B583B001AC012565700027A7702570D6
S11303D021003E20064EB0478022D205054B9A618B
S11303E02770657021000F20B04703B0F0BDC046F0
S11303F08D0900008044004110B5002200230270E2
S1130400427000214280017103760262C2618260FF
S11304100373C0246401C481037443748374C37478
S113042003752A24035543758375063C0355C2841A
S11304300285C1752B23C1540133C15410BD000082
S1130440F0B5D6464F464646C0B596B007001600EE
S11304500160C64A106A80235B02034313620B786F
S11304600520DB0705D516B01CBC90469946A2466C
S1130470F0BD0B7817309B07F5D473783B71002BD4
S113048004D1BB4A136C04210B4313640023BB60E7
S1130490FB603B61BB76FB763B833B77B54B1F60D0
S11304A02A23F35C002B05D1337D002B02D10133C9
S11304B07B7701E000237B773B68984633786A4674
S11304C0137069461E20AC4B98471E20AB4B9847CF
S11304D02C23F25C002A54D0013BF55C337BEB18EF
S11304E0DBB2D118C9B28B4221D25219D3B2994688
S11304F0A34B9A4603E00135EDB24D4517D00F24C6
S11305002C40337BE41850229E4902A8D047132C78
S1130510F1D8A40002ABE05801A900234B70CB70C2
S11305208B7001330B70C0B2974B9847E3E7F489A3
S11305305022944902A8924B9847132C13D9737DE7
S11305409B00DBB242461370B37DDB017278134328
S1130550DBB2424653703379342B00D97BE19B00E4
S11305608A4AD3589F46A40002ABE05801A900234D
S11305704B70CB708B7001330B70C0B2824B9847B9
S1130580DDE7347B50227F4902A87D4B9847132C2A
S113059015D9F48950227B4902A8794B9847132C2A
S11305A0CDD8A40002ABE05801A900234B70CB7056
S11305B08B7001330B70C0B2734B9847BFE7A40034
S11305C002ABE05801A900234B70CB708B70013350
S11305D00B70C0B26C4B9847DBE704231024022154
S11305E01AE0717C337C102416E0062310240121C8
S11305F012E00823102400210EE0002330240021FF
S11306000AE000232024002106E000230024002126
S113061002E0022310240121090170220A4013433D
S113062042469370F37D17203F2B00D91BE7D3700C
S11306303A68537E5BB2002BFBDBF37C7288134376
S11306402422B25CD2001343327D92001343B27C65
S113065052001343234342469380337E002B20D021
S1130660102C00D1D9E000D898E0202C00D1B6E0BD
S1130670302C16D1F27C002A0AD0F269803217207D
S1130680FF2A00D9EFE6326A8032FF2A00D9EAE66F
S11306901720F269FF2A00DDE5E6326AFF2A00DD51
S11306A0E1E639684A7E52B2002AFBDB4246137205
S11306B03A68537E5BB2002BFBDBB38B42469383D9
S11306C03A68537E5BB2002BFBDB338C42461384C7
S11306D02C23F35C002B05D0013BDBB217200F2B3E
S11306E000D9C0E62B22B15C17200F2900D9BAE645
S11306F03868427E52B2002AFBDBF289307B024327
S1130700B068024309050A431B04134342461361BC
S11307102A23F35C13750F2393751533F35C002BB5
S113072012D0F38C1A4A1720934200D99BE6424612
S11307309384328D80231B01D31815499BB28B42BD
S113074000D990E64346DA84124B1B685B01E02231
S1130750D2001340104A516849011268D20E0A436C
S1130760D2B213434246138500207CE600040040C5
S113077000080040580200201D100000910F0000E6
S1130780291C0000502500006D1100007C2400008D
S1130790FF0F00002460800020608000002C00D047
S11307A07FE7F27C002A0FD0F269802109018C4690
S11307B062442A4917208A4200D954E6326A6244C4
S11307C026498A4200D94EE6244A1720F16991420B
S11307D000DD48E6316A914200DD44E661E7F27CDF
S11307E0002A0FD0F269802189008C4662441C499A
S11307F017208A4200D936E6326A624418498A428E
S113080000D930E6164A1720F169914200DD2AE644
S1130810316A914200DD26E643E7F27C002A0FD0DC
S1130820F269802109028C4662440E4917208A42EB
S113083000D918E6326A62440A498A4200D912E6AB
S1130840084A1720F169914200DD0CE6316A9142B1
S113085000DD08E625E7172005E6C046FF0F000087
S1130860FF030000FFFF000070B52F4B1D682B68CD
S11308701A7EDC7D1440E20716D4630708D50423EE
S11308802A681376EB7E9B0702D5AB7E9B0742D486
S1130890A30708D502232A681376EB7E5B0702D5EB
S11308A0AB7E5B073BD470BD01221A762A68537E67
S11308B05BB2002BFBDB69698B1C6B61538B9BB2B6
S11308C00B802B8B013B9BB22B83002B11D06B7FB6
S11308D0002BD2D02A68537E5BB2002BFBDB137B48
S11308E002210B4313732A68537E5BB2002BFBDB9C
S11308F0C3E701232A6893752B7F052BBDD1002301
S11309002B77EB7EDB07B8D5AB7EDB07B5D52800AC
S1130910AB689847B1E72800EB689847B8E72B69BC
S113092028009847BFE7C04658020020931C9B004C
S11309301950012393401A00837E13438376704732
S113094010B5038B9BB20524002B01D0200010BDF1
S1130950037F052BFAD00523037702834161043B0F
S11309600268D375437F0024002BEFD00268537EC6
S11309705BB2002BFBDB137B02210B431373026876
S1130980537E5BB2002BFBDB0024DFE700B583B0B2
S113099001AB80221A700A785A704A789A708A7861
S11309A0DA701900014B984703B000BD6D110000C7
S11309B010B5082803D880001C4B1B589F46002004
S11309C032E01B4B18692FE01A4B1B6A9B059B0FE7
S11309D01948D84028E0164B586925E0144B1B6889
S11309E000209B0720D513491022CB681A42FCD063
S11309F00F4B1A6824231340042B01D00F4813E033
S1130A0000200F4B98470A4B9B681B041B0C584350
S1130A100AE05023074AD35C00205B0704D5044B4B
S1130A20D86801E08020000210BDC046A025000067
S1130A30300200200008004000127A00006CDC0242
S1130A403910000070B50C490B6A04788578407839
S1130A500122104080014026B34303432A40D201BF
S1130A60802083431343032222401202034803409D
S1130A7013430B6270BDC04600080040FFFCFFFF3B
S1130A80F0B5DE4657464E464546E0B50100264BD6
S1130A909B469B8A45780078424242419146887839
S1130AA0CA7894460A7990464E7B0F7B8C7B8A6881
S1130AB01E494A6101214A46920091460422934309
S1130AC04A46134342460A40D200904608229343C2
S1130AD04246134362460A4012019446102293434D
S1130AE062461343084040012022934303430F40CE
S1130AF0BF01402083433B430E40F6014030834313
S1130B003343793805402D02094803402B432140E3
S1130B100903084803400B435A4693823CBC904661
S1130B209946A246AB46F0BD0008004030020020C2
S1130B30FFF8FFFFFFEFFFFF10B5037A9B061B0CC6
S1130B4042899205920D134318494B608379C27907
S1130B50134342888488224313434278D2011343C7
S1130B600B600378042B11D0202B0ED1037B9B0642
S1130B70028A1343C28912040D490A4013430B4AE3
S1130B80936011680B4B0B43136010BD037B9B06F2
S1130B90028A1343C289120405490A401343034AD3
S1130BA09360136804210B431360EEE730020020C6
S1130BB00000FF0324040000082803D88000254B0C
S1130BC01B589F46172044E0234A136A02210B4313
S1130BD0136200203DE0204A936902210B43936194
S1130BE0002036E01C4A138A02210B4313820020A2
S1130BF02FE0194A938A02210B439382002028E0B4
S1130C0016490B68022213430B60134B9A84190094
S1130C100E32CB681A42FCD0104A91680E4BD9624E
S1130C2052689A6200229A8419001032CB681A42E0
S1130C30FCD00A4B1B689BB2074A9384002008E04F
S1130C40054944228B5C022003438B54002000E0BE
S1130C5000207047C4250000000800403002002036
S1130C60F0B5CE46474680B58FB0C222D200504B75
S1130C709A60504A53681E218B431C390B435360BE
S1130C80032201AB1A7000244B4DE0B201A9A8471E
S1130C900134252CF9D10AA8002303708370802223
S1130CA012028260C37001220271037383730532DE
S1130CB042704373414B98470520414B98473C4948
S1130CC00222CB681A42FCD0394A938A80210B4312
S1130CD0938205AB00210022598099809A71DA71C0
S1130CE03F3159813B3919705A70364B1B689B0E42
S1130CF03F2B5BD005A80372B723DB0003820723D5
S1130D0003733833C381304B984704A800254570DA
S1130D100126867005702D4B98470620284FB8474A
S1130D202B4B984701AC02966570257265720523BA
S1130D30237021000120274B994698470120264B18
S1130D40984698476660657006232370257265721D
S1130D5021000220C8470220C0472670210000203D
S1130D60154B984700201D4B98470720B84710495A
S1130D70D022CB681340D02BFBD1194A0023137225
S1130D8053729372D37201A901224A604B700B72A1
S1130D904B7207330B7000200E4B984700200E4B0C
S1130DA098470FB00CBC90469946F0BD203BA1E794
S1130DB000080040004000411D100000810A0000AE
S1130DC0B90B000024608000390B0000450A0000C4
S1130DD0E50D0000090E0000C10E0000910F000097
S1130DE000040040064A936908210B4393610122E1
S1130DF0044B1A7019000B781342FCD17047C0469B
S1130E0000040040000C004070B5060004000D789A
S1130E102D0205434B78002B02D08023DB021D43B7
S1130E204B7A002B02D080231B031D434868012802
S1130E3010D9431E184234D1022830D9022300228B
S1130E4001325B009842FBD8120232431400802323
S1130E505B031D430B7A002B02D080239B031D43AD
S1130E60134A53785BB2002BFBDB124B9847124BAF
S1130E701E700F4A53785BB2002BFBDB0C4B9C605B
S1130E801A0053785BB2002BFBDB094A53688021BC
S1130E9049020B401D435560084B984770BD002222
S1130EA0D2E70402344380239B021D43D2E7C046A9
S1130EB0000C004051030000080C004091030000A6
S1130EC010B504000B4A53785BB2002BFBDB0A4BD2
S1130ED098470A4B1C70074A53785BB2002BFBDB24
S1130EE0044A516880235B020B435360044B9847C8
S1130EF010BDC046000C004051030000040C00402B
S1130F009103000070B504001A4A53785BB2002BB9
S1130F10FBDB194B9847194B1C70164A53785BB28C
S1130F20002BFBDB134E7068C004C00E144B9847B3
S1130F300500124B1C707668F602F60F114B1C70FC
S1130F400C4A53785BB2002BFBDB0A4B9C682402EF
S1130F50240C0D4B9847002E07D1012C07D92100F2
S1130F6028000A4B9847050001E00134E5402800B9
S1130F7070BDC046000C004051030000040C00404A
S1130F80B1090000080C0040910300008D18000016
S1130F9010B50400064B9847064B1C70064A53884C
S1130FA08021C9010B435380044B984710BDC046B0
S1130FB051030000020C0040000C004091030000AB
S1130FC010B504000F4B98470F4B1C700F4A538801
S1130FD01B05180F53880E490B40538053880D4945
S1130FE00B40538011008022D2014B881342FCD164
S1130FF006494A8803020648024013434B80064BC5
S1131000984710BD51030000020C0040000C004042
S1131010FFF0FFFFFFBFFFFF9103000010B50C7846
S113102024020443024B9847A4B2024B5C8010BDD7
S1131030C10F0000000C004010B50400064B984797
S1131040064B1C70064B5C882405240F054B9847FF
S11310502000054B984710BD51030000020C0040CE
S1131060000C004091030000050F000070B500283B
S11310701CDBC317032632001A401218FF24A400F5
S113108022400E4CA4466244C025AD0054599B0F27
S1131090C0183040C31ADB000633DBB29E40B443B1
S11310A09940214351510023180070BD1723421C5D
S11310B0FAD18907024B19620023F5E700E100E049
S11310C000ED00E030B5D378002B35D11378802BB8
S11310D029D01B0680246402234354780225AC43A0
S11310E006D19478002C20D18024A40223434160AB
S11310F05478013C012C1CD90D042D0CA024E405CA
S11311002C431C4384620D0CD02424062C431C4322
S11311108462D478002C22D15B031CD59378012BF4
S11311201ED0416117E00023D7E7C024E402234323
S1131130DDE70D4C2340DFE741600C04240CA023C1
S1131140DB05234383620C0CD0231B0623438362F9
S1131150D378002B03D15378013B012B02D930BD46
S11311608161F8E78160FAE7FFFFFBFF10B50A0031
S1131170C1090023002904D14309DB0105498C4638
S113118063441F242040012181401800024B9847EA
S113119010BDC04600440041C51000007047000067
S11311A010B5054B9847054B9847054B9847054B99
S11311B09847054B984710BD610C0000C10300001F
S11311C09D1100009D1100009D110000FEE700002C
S11311D0F8B52A4A2A4B9A4211D01A00294B9A424E
S11311E00DD2294A03339B1A9B0801339B0000222A
S11311F0234822498C58845004329A42FAD1234A13
S1131200234B9A420AD2D34321495B1803218B43CF
S113121004339B18002102C29342FCD11D4AFF21D2
S11312201D4B8B439360FD3990235B001B4AD150C7
S11312301B4AD3780325AB4302242343D370D378CA
S11312400C27BB4308263343D370164B987B3022BC
S11312509043202210439873997BB9433143997387
S11312609A7BAA4322439A730F4A536880210B4303
S113127053600E4B98470E4B9847FEE7C02600007C
S1131280000000200C020020040000200C020020BA
S1131290F003002000ED00E00000000000700041B9
S11312A0005000410048004100400041B91B0000CB
S11312B06D1500000300064A1268002A04D0044A8F
S11312C01068C318136070470249014A1160F6E7B9
S11312D048020020F02300207047000010B50D4B99
S11312E018780D4B1B8DDBB20C4A13540A2B09D012
S11312F00A4BC01801210A4B9847064A1378013358
S1131300137010BD80180121054B98470022014B32
S11313101A70F6E74C020020001400426802002014
S11313207502000030B587B0324B1B7E5B0705D4D5
S1131330304B1B7EDB0931D107B030BD2D4B5B8BAD
S11313405B07F9D42C4B1A782A4B1B8DDBB22B4943
S11313508B54002A47D04B2B08D03E2B11D001329E
S1131360D2B2FE2A11D0244B1A70E5E78A18013A4A
S113137013784F2BE0D10023214A13701E4A1370B7
S1131380DAE701221F4B1A70D6E700221A4B1A70B3
S1131390FF32202119481C4B9847CDE701A81B4B6D
S11313A0020032CB32C219681160998891809B790E
S11313B09371104A117E80235B420B4313761321F1
S11313C0134B984709211348134B9847FA20C00040
S11313D0124B9847BFF34F8F114A124BDA60BFF399
S11313E04F8FC046FDE73E2BCBD00122024B1A7033
S11313F0A2E7C046001C00424D020020CC0200209F
S11314007B0100204E0200203B1C0000E825000068
S1131410750200008C000020AD02000025030000CE
S11314200400FA0500ED00E010B58CB06846174BD7
S1131430984702236A461370F02212050292E022B2
S1131440D20069464A806A464B7000230B732033EE
S11314500B710F4C0F4920000F4B98472268537EA5
S11314605BB2002BFBDB802109040C4B19600F23BA
S113147093751376137802210B431370044B1A6887
S1131480537E5BB2002BFBDB0CB010BDF9030000F4
S1131490CC030020004000424104000000E100E0D1
S11314A010B5054C002205492000054B9847E37E02
S11314B001221343E37610BDCC030020D9120000AF
S11314C02D090000F0B5194A136AA0210B431362D9
S11314D0174B184A5A80184A5A80184B4A395A5C92
S11314E0012422435A541B395A5C0F26B243022565
S11314F02A435A5457201A5C22431A54585C0F2228
S113150010402027384358545420195C214319545F
S11315101A38195CB143294319545525595D0C43B4
S11315205C55195C0A403A431A54F0BD000400406B
S1131530000C004017400000194000000044004126
S113154010B50122074B1A70BFF35F8F62B60021FA
S11315500E20054CA04701210C20A0470221172092
S1131560A04710BD0C0000206D100000F0B585B040
S11315709B4B98479B4B98479B4B9847E1204002D5
S11315809A4B98479A4B98479A4B98479A4B984747
S113159001A89A4B020012CB12C21B8813800A21A5
S11315A0974B984705219748974B9847974B1B783B
S11315B0002B0DD0934E944D954C05213000A84737
S11315C0112120008E4B9847904B1B78002BF4D1AF
S11315D0262190488A4B98478F48904B9847FF2282
S11315E020218F488F4B9847884C01232370002279
S11315F08D4B1A700E218D48834B98472378002B0E
S11316000DD08A4E804D8A4C0E213000A8471021FF
S113161020007B4B98477D4B1B78002BF4D129216C
S11316208448774CA0471B218348A0471521834851
S1131630A0477948794B9847FF2220217848794B75
S11316409847724C012323700022774B1A7027218C
S11316507B486D4B98472378002B08D0774E684D14
S11316606A4C15213000A8472378002BF9D10C21AE
S11316707448634B98476848684B9847FF22202179
S11316806748684B98470122604B1A700022664BEA
S11316901A706D4D19E017216C48594B9847FA2080
S11316A080005E4B9847FF2220215D485D4B9847A0
S11316B00122564B1A7000225B4B1A70644B186857
S11316C0644CA047644B1868A047012263496448EE
S11316D0A8472C2163484C4B98474C4B1B78002B54
S11316E008D0614C464E494F17212000B0473B7843
S11316F0002BF9D11B215D48414B98470122434BF4
S11317001A700022484B1A70FF3220214448454B7E
S113171098474D20564CA0474F4E30601020A047AC
S11317204B4C20604D225349534FB8474B4B1A88BA
S113173030685249B84720681021334B9847FA2043
S1131740C000364B98474E4B1B78002B1CD0002210
S11317504B4B1A70404B18684D212B4CA047FA2074
S113176080002E4B98470E214648A047274B1B78F4
S1131770002B90D0444C224E244F0C212000B04723
S11317803B78002BF9D186E70E213E481E4B984743
S11317901E4B1B78002B08D03B4C194E1B4F0C21C1
S11317A02000B0473B78002BF9D117212748144B70
S11317B09847FA208000194B9847FF2220211848A7
S11317C0184B98470122114B1A700022164B1A70BD
S11317D01F4B18681F4CA0471F4B1868A04774E79D
S11317E0A1110000E5020000C5140000150100006D
S11317F04115000029140000A1140000582600001F
S113180075020000BC000020AD0200007B01002036
S113181050010020C4000020AC0D0000250300008E
S1131820CC0200203B1C00004D0200207C00002064
S1131830EC000020FC00002028010020980000207B
S113184054000020B0000020410900006401002081
S113185060020020151C00005C02002064020020CD
S1131860CC0300207C0100203C000020200000204C
S1131870011C0000FC250000C11D00000C26000016
S11318804E020020100000204401002000224308E2
S11318908B4274D303098B425FD3030A8B4244D334
S11318A0030B8B4228D3030C8B420DD3FF22090276
S11318B012BA030C8B4202D31212090265D0030B35
S11318C08B4219D300E0090AC30B8B4201D3CB032B
S11318D0C01A5241830B8B4201D38B03C01A52416D
S11318E0430B8B4201D34B03C01A5241030B8B426F
S11318F001D30B03C01A5241C30A8B4201D3CB025A
S1131900C01A5241830A8B4201D38B02C01A52413E
S1131910430A8B4201D34B02C01A5241030A8B4241
S113192001D30B02C01A5241CDD2C3098B4201D359
S1131930CB01C01A524183098B4201D38B01C01AD7
S1131940524143098B4201D34B01C01A524103094E
S11319508B4201D30B01C01A5241C3088B4201D3FD
S1131960CB00C01A524183088B4201D38B00C01AAA
S1131970524143088B4201D34B00C01A5241411AD1
S113198000D20146524110467047FFE701B50020DE
S113199000F006F802BDC0460029F7D076E770478C
S11319A07047C046002B11D1002A0FD1002900D165
S11319B0002802D00021C943081C07B4024802A130
S11319C04018029003BDC046D9FFFFFF03B4684628
S11319D001B5029800F006F8019B9E4602B00CBCCB
S11319E07047C046F0B557464E464546DE46E0B51C
S11319F0040083B00D00924699468B422FD82CD018
S1131A004946504600F0AEF829000600200000F0D8
S1131A10A9F8331A9846203B9B4600D574E05346F8
S1131A205A4693401F005346424693401E00AF421D
S1131A3029D826D05B46A41BBD41002B00DA79E0EF
S1131A40002200230092019301235A4693400193FC
S1131A50012342469340009319E08242D0D90022E8
S1131A600023009201930C9B002B01D01C605D604D
S1131A700098019903B03CBC90469946A246AB46F7
S1131A80F0BDA342D6D9002200230092019343461D
S1131A90002BE8D0FB0772081A4346467B080EE089
S1131AA0AB4201D1A2420CD8A41A9D4101202419B1
S1131AB06D410021013E24184D41002E06D0AB4259
S1131AC0EED9013E24196D41002EF8D15B460098F1
S1131AD0019900196941002B22DB2B005A46D3409F
S1131AE02A004446E2401C005B461500002B2CDB18
S1131AF026009E40330026004746BE403200801A2E
S1131B00994100900191AEE7424620239B1A524628
S1131B10DA40414613004A468A4017001F4382E7D1
S1131B20424620239B1A2A0046469A402300F3404B
S1131B301343D5E74246202300219B1A002200913B
S1131B4001920122DA40019282E7424620232600D4
S1131B509B1ADE402F00B446974066463B00334351
S1131B60C9E7C04610B5002903D100F007F82030BA
S1131B7002E0081C00F002F810BDC0461C2101233D
S1131B801B04984201D3000C10391B0A984201D35C
S1131B90000A08391B09984201D30009043902A23A
S1131BA0105C40187047C0460403020201010101A1
S1131BB0000000000000000070B500260C4D0D4C24
S1131BC0641BA410A64209D1002600F065FD0A4D4D
S1131BD00A4C641BA410A64205D170BDB300EB5897
S1131BE098470136EEE7B300EB5898470136F2E721
S1131BF0A4260000A4260000A4260000A8260000B5
S1131C0010B5034B0100186800F06AF810BDC04617
S1131C10A801002010B5034B0100186800F016F865
S1131C2010BDC046A8010020002310B59A4200D17F
S1131C3010BDCC5CC4540133F8E70300821893420E
S1131C4000D1704719700133F9E7000070B5050041
S1131C50002910D00C1F2368002B00DAE418280098
S1131C6000F0D0F81D4A1368002B05D1636014609E
S1131C70280000F0C8F870BDA34209D92168601893
S1131C808342F3D118685B6841182160EEE71300C2
S1131C905A68002A01D0A242F9D919685818A042FA
S1131CA00BD120680918581819608242E0D11068D5
S1131CB05268411819605A60DAE7A04202D90C232D
S1131CC02B60D5E721686018824203D110685268FE
S1131CD04118216062605C60CAE7C046500200207F
S1131CE0032370B5CD1C9D43083506000C2D1ED270
S1131CF00C25A9421DD8300000F084F8254A146848
S1131D002100002919D1244C2368002B03D1300071
S1131D1000F044F820602900300000F03FF8431C34
S1131D202CD10C233000336000F06DF803E0002D5B
S1131D30DFDA0C233360002070BD0B685B1B1AD400
S1131D400B2B03D90B60CC18256003E08C420ED119
S1131D5063681360300000F056F8200007220B304F
S1131D60231D9043C31AE7D05A42E250E4E74B687C
S1131D7063600C00EEE70C004968C2E70323C41C4F
S1131D809C43A042E0D0211A300000F007F8431C25
S1131D90DAD1C6E75002002054020020002370B5B7
S1131DA0064C050008002360FFF784FA431C03D1A6
S1131DB02368002B00D02B6070BDC046EC030020CC
S1131DC00EB410B59DB002A9029008610B4882249C
S1131DD088604861012040421FABC881084804CB99
S1131DE0A400006801938C8100F070F80023029A2B
S1131DF013701DB010BC08BC03B01847FFFFFF7F71
S1131E00A801002070477047F0B58E6885B00700C0
S1131E100C00039201939E4239D890238A89DB00F7
S1131E201A4234D00325096923685B1A0293636953
S1131E3002985D43EB0F5D19019B6D1001331B1874
S1131E40AB4200D91D00530532D529003800FFF7F5
S1131E5047FF061E09D10C233B6040230120A289C1
S1131E6040421343A38105B0F0BD029A2169FFF7F4
S1131E70DBFEA389144A1A4080231343A381029BE7
S1131E802661F61826606561019EED1AA560019B26
S1131E90B34200D21E0032000399206800F0ADFA6C
S1131EA0A36800209B1BA36023689E192660DAE7C1
S1131EB02A00380000F0B3FA061EE0D12169380088
S1131EC0FFF7C4FEC7E7C0467FFBFFFFF0B59FB036
S1131ED0029005938B890F0016001B0611D50B6920
S1131EE0002B0ED14021FFF7FBFE3860386100283B
S1131EF005D10C23029A013813601FB0F0BD4023B2
S1131F007B61002306AD6B6120336B761033AB76B7
S1131F1034002378002B47D1A31B04930DD0A31BBB
S1131F20320039000298FFF76FFF431C00D1B5E07F
S1131F306A69049B944663446B612378002B00D147
S1131F40ACE00122002352426A6002A954325218C2
S1131F5001342B60EB60AB601370AB65584E052207
S1131F602178300000F03EFA621C002820D1296854
S1131F70CB0604D5532302AE20309B1918700B07EF
S1131F8004D553232B2002AE9B19187023782A2BD7
S1131F9016D000200A21099B2278303A092A55D903
S1131FA0002815D0099313E0252BB5D00134B0E7F0
S1131FB00123801B8340296814000B432B60CDE769
S1131FC0059B181D1B680590002B39DB0993140031
S1131FD023782E2B0BD16378621C2A2B3ED1059BD0
S1131FE002341A1D1B680592002B34DB0793354E0F
S1131FF021780322300000F0F5F9002806D04023B0
S1132000801B83402A68013413432B602178062205
S11320102D48661C297600F0E5F9002846D02B4BA4
S1132020002B2FD12968059B0722C90528D59B18A9
S11320309343083305936B69039A9B186B6167E7B5
S11320405B42EB6002230B432B60C0E74B4301343C
S11320509B180120A0E701235B42C7E7002314007B
S11320600A201A006B6021783039092903D9002B22
S1132070BDD00792BBE74243013452180123F2E773
S11320800733D5E705AB00933A00114B29000298BA
S113209000E000BF0390039B0133CCD1BB890B98B4
S11320A05B0600D429E70120404226E705AB0093F4
S11320B03A00074B2900029800F07AF8EAE7C04694
S11320C0642600006A2600006E260000000000005E
S11320D0091E0000F7B5150001938A680B6900908A
S11320E00C00934200DA130022002B604332127872
S11320F0002A01D001332B6023689B0602D52B688C
S113210002332B60062723681F4027D02300433364
S11321101B785A1E93412268920630D422000199FA
S113212043320098089EB047431C25D006232068FC
S11321302A68E16803400025042B03D18D1AEB4380
S1132140DB171D40A3682269934201DD9B1AED1839
S11321500027BD4220D1002010E00137E3682A683F
S11321609B1A9F42D2DA2200012319320199009866
S1132170089EB047431CF0D101204042FEBD3020F0
S1132180E1184331087021005A1C45310978A2181E
S1132190433202331170C1E7220001231A3201993C
S11321A00098089EB047431CE6D00137D1E70000F1
S11321B0F0B58BB006920A0043320793059004925F
S11321C00A7E0C00109B6E2A00D18FE017D8632A78
S11321D02CD008D8002A00D199E0582A54D02600DF
S11321E04236327029E0642A01D0692AF7D1216885
S11321F01A68080623D5111D1960156825E0732A8D
S113220000D188E008D86F2A29D0702AE7D120228B
S113221009680A43226003E0752A20D0782ADED1B7
S113222022007821453211706C4A30E00E001A68A1
S11322304236111D196013683370012379E0490691
S1132240D9D5111D19600023D55E002D03DA2D2385
S1132250049A6D421370624B0A2703932FE020689F
S11322601968050603D5081D18600D6805E04006C9
S1132270F9D50D68081D1860ADB2594B08270393B2
S11322806F2A18D00A2716E045310A70544A03927F
S11322901A682168101D18601568080622D5CB0736
S11322A002D52023194321601027002D03D12023B8
S11322B022689A4322602300002243331A70636821
S11322C0A360002B5CDB0422216891432160002D74
S11322D058D1049E002B64D02600039B42361B7801
S11322E033705EE04806DAD5ADB2D8E709681A68FB
S11322F0080605D5111D1960136862691A6006E0A5
S11323004906F7D5111D19601368A28A1A800023A3
S1132310049E236154E01A68111D19601668002197
S11323206268300000F05EF8002801D0801B606015
S1132330636823610023049A137041E02369320027
S113234006990598079DA847431C43D02368002598
S11323509B070FD4099BE06898423DDA18003BE0E4
S113236022000123193206990598079EB047431CA1
S113237030D00135E368099A9B1A9D42F0DBE9E706
S1132380002DA9D0049E28003900FFF705FB039B0C
S1132390013E5B5C280033703900FFF777FA051EB5
S11323A0F1D1082F09D12368DB0706D563682269B8
S11323B0934202DC3023013E3370049B9B1B236158
S11323C0079B09AA00932100069B0598FFF782FE4C
S11323D0431CB3D1012040420BB0F0BD862600005F
S11323E075260000C9B28218904201D100207047BE
S11323F003788B42FBD00130F6E710B5884202D94E
S11324008B18984208D300239A4207D0CC5CC4545A
S11324100133F9E78B5C8354013AFBD210BDF8B564
S113242007000D001600002905D11100FFF758FC24
S113243004002000F8BD002A03D1FFF707FC340094
S1132440F7E700F012F82C008642F2D93100380088
S1132450FFF746FC041EECD029003200FFF7E4FB32
S113246029003800FFF7F2FBE3E70B1F1B68181F76
S1132470002B01DA0B58C018704700000A06000050
S113248056080000560800005608000056080000D0
S113249056080000560800005608000056080000C0
S11324A056080000560800005608000056080000B0
S11324B0560800005608000056080000F205000007
S11324C05608000056080000560800005608000090
S11324D05608000056080000560800005608000080
S11324E05608000056080000560800005608000070
S11324F056080000560800005608000002060000B6
S1132500560800005608000056080000560800004F
S1132510560800005608000056080000560800003F
S1132520560800005608000056080000560800002F
S1132530560800005608000056080000FA0500007E
S113254012060000DA050000EA050000E2050000BA
S11325500200000003000000280000002900000021
S11325600400000005000000060000000700000051
S113257020000000210000002200000023000000D1
S113258024000000250000002600000027000000B1
S113259008000000090000000A0000000B00000011
S11325A0C2090000BE090000BE090000240A0000A0
S11325B0240A0000D6090000C8090000DC09000054
S11325C0120A0000E40B0000C40B0000C40B00005E
S11325D0500C0000D60B0000F20B0000C80B0000EA
S11325E0000C0000400C0000414E204552524F5256
S11325F0204F4343555245440D0A000041542B4398
S1132600495053454E443D25640D0A004745542026
S113261068747470733A2F2F6170692E7468696ED0
S113262067737065616B2E636F6D2F757064617471
S1132630653F6170695F6B65793D4341534C5A4313
S1132640434E564D484B36584945266669656C6479
S1132650313D25640D0A0000537461727465640D84
S11326600A000000232D302B2000686C4C006566A6
S113267067454647003031323334353637383941CF
S113268042434445460030313233343536373839E5
S11326906162636465660000F8B5C046F8BC08BCB6
S11326A09E467047DD000000F8B5C046F8BC08BC83
S10B26B09E467047B5000000CE
S10B26B82CF3FF7F0100000078
S11326C0006CDC02401F0000080000000100000054
S11326D041542B434950434C4F53450D0A000000CD
S11326E041542B434950535441525420434F525266
S11326F04543544C592E2E2E0D0A000041542B43B1
S113270049505354415254204572726F722E2E2EEA
S11327100D0A000041542B43574A41503D224E6F4D
S11327206F7254656368322D31222C224E746563B6
S113273068323032312121220D0A000041542B43EA
S1132740574D4F44453D310D0A00000041542B5272
S113275053540D0A00000000434F4E4E4543544964
S11327604E4720544F20574946490D0A00000000A7
S1132770434F4E4E45435445440D0A0041540D0AFF
S1132780000000004F4B20434F4D4D414E44204923
S113279053205245434549564544205355434345E8
S11327A0535346554C4C590D0A000000534554549C
S11327B0494E472055502E2E2E0D0A005345545491
S11327C0494E4753204152452053554343455353A3
S11327D046554C4C5920434F4D504C455445442E7E
S11327E02E2E0D0A00000000495420495320414474
S11327F04A555354454420415320434C49454E5473
S11328000D0A000057414954494E472E2E0D0A0027
S11328104553502043414E27542046494E440D0A07
S113282000000000434F4E4E454354494F4E20494B
S11328305320434C4F5345440D0A000141542B434C
S1132840495053544152543D22544350222C226146
S113285070692E7468696E67737065616B2E636F3F
S11328606D222C38300D0A00AC010020000000005D
S11328700000000000000000000000000000000054
S11328800000000000000000000000000000000044
S11328900000000000000000000000000000000034
S11328A00000000000000000000000000000000024
S11328B00000000000000000000000000000000014
S10F28C000000000000000000000000008
S90311D11A
